{
  "contractName": "AirdropClaim",
  "abi": [
    {
      "inputs": [
        {
          "internalType": "address",
          "name": "airdropToken_",
          "type": "address"
        }
      ],
      "stateMutability": "nonpayable",
      "type": "constructor"
    },
    {
      "anonymous": false,
      "inputs": [
        {
          "indexed": false,
          "internalType": "uint256",
          "name": "claimId_",
          "type": "uint256"
        },
        {
          "indexed": false,
          "internalType": "address",
          "name": "add_",
          "type": "address"
        },
        {
          "indexed": false,
          "internalType": "uint256",
          "name": "amount_",
          "type": "uint256"
        }
      ],
      "name": "Claimed",
      "type": "event"
    },
    {
      "anonymous": false,
      "inputs": [
        {
          "indexed": true,
          "internalType": "address",
          "name": "previousOwner",
          "type": "address"
        },
        {
          "indexed": true,
          "internalType": "address",
          "name": "newOwner",
          "type": "address"
        }
      ],
      "name": "OwnershipTransferred",
      "type": "event"
    },
    {
      "stateMutability": "payable",
      "type": "fallback",
      "payable": true
    },
    {
      "inputs": [],
      "name": "airdropTokenAddress",
      "outputs": [
        {
          "internalType": "address",
          "name": "",
          "type": "address"
        }
      ],
      "stateMutability": "view",
      "type": "function",
      "constant": true
    },
    {
      "inputs": [],
      "name": "claimId",
      "outputs": [
        {
          "internalType": "uint256",
          "name": "",
          "type": "uint256"
        }
      ],
      "stateMutability": "view",
      "type": "function",
      "constant": true
    },
    {
      "inputs": [
        {
          "internalType": "bytes32",
          "name": "",
          "type": "bytes32"
        }
      ],
      "name": "hashBlacklist",
      "outputs": [
        {
          "internalType": "bool",
          "name": "",
          "type": "bool"
        }
      ],
      "stateMutability": "view",
      "type": "function",
      "constant": true
    },
    {
      "inputs": [],
      "name": "owner",
      "outputs": [
        {
          "internalType": "address",
          "name": "",
          "type": "address"
        }
      ],
      "stateMutability": "view",
      "type": "function",
      "constant": true
    },
    {
      "inputs": [],
      "name": "renounceOwnership",
      "outputs": [],
      "stateMutability": "nonpayable",
      "type": "function"
    },
    {
      "inputs": [
        {
          "internalType": "address",
          "name": "newOwner",
          "type": "address"
        }
      ],
      "name": "transferOwnership",
      "outputs": [],
      "stateMutability": "nonpayable",
      "type": "function"
    },
    {
      "stateMutability": "payable",
      "type": "receive",
      "payable": true
    },
    {
      "inputs": [
        {
          "internalType": "address",
          "name": "tokenAddress_",
          "type": "address"
        }
      ],
      "name": "pullFunds",
      "outputs": [],
      "stateMutability": "nonpayable",
      "type": "function"
    },
    {
      "inputs": [
        {
          "internalType": "address",
          "name": "airdropToken_",
          "type": "address"
        }
      ],
      "name": "setAirdropTokenAddress",
      "outputs": [],
      "stateMutability": "nonpayable",
      "type": "function"
    },
    {
      "inputs": [
        {
          "internalType": "uint256",
          "name": "amount",
          "type": "uint256"
        },
        {
          "internalType": "uint256",
          "name": "expiredAt",
          "type": "uint256"
        },
        {
          "internalType": "uint8",
          "name": "v",
          "type": "uint8"
        },
        {
          "internalType": "bytes32",
          "name": "r",
          "type": "bytes32"
        },
        {
          "internalType": "bytes32",
          "name": "s",
          "type": "bytes32"
        }
      ],
      "name": "claim",
      "outputs": [
        {
          "internalType": "bool",
          "name": "",
          "type": "bool"
        }
      ],
      "stateMutability": "nonpayable",
      "type": "function"
    }
  ],
  "bytecode": "0x608060405260006003553480156200001657600080fd5b50604051620018d9380380620018d983398181016040528101906200003c91906200018e565b60006200004e6200016f60201b60201c565b9050806000806101000a81548173ffffffffffffffffffffffffffffffffffffffff021916908373ffffffffffffffffffffffffffffffffffffffff1602179055508073ffffffffffffffffffffffffffffffffffffffff16600073ffffffffffffffffffffffffffffffffffffffff167f8be0079c531659141344cd1fd0a4f28419497f9722a3daafe3b4186f6b6457e060405160405180910390a350600073ffffffffffffffffffffffffffffffffffffffff168173ffffffffffffffffffffffffffffffffffffffff1614156200012757600080fd5b80600260006101000a81548173ffffffffffffffffffffffffffffffffffffffff021916908373ffffffffffffffffffffffffffffffffffffffff1602179055505062000208565b600033905090565b6000815190506200018881620001ee565b92915050565b600060208284031215620001a157600080fd5b6000620001b18482850162000177565b91505092915050565b6000620001c782620001ce565b9050919050565b600073ffffffffffffffffffffffffffffffffffffffff82169050919050565b620001f981620001ba565b81146200020557600080fd5b50565b6116c180620002186000396000f3fe60806040526004361061008a5760003560e01c8063b73e0e8b11610059578063b73e0e8b14610129578063b864ba7d14610154578063dba6a0101461017d578063f2fde38b146101ba578063fa6b3b53146101e357610091565b80635c25fd13146100935780635d5a92fb146100be578063715018a6146100e75780638da5cb5b146100fe57610091565b3661009157005b005b34801561009f57600080fd5b506100a8610220565b6040516100b59190611458565b60405180910390f35b3480156100ca57600080fd5b506100e560048036038101906100e09190610dbc565b610226565b005b3480156100f357600080fd5b506100fc61046a565b005b34801561010a57600080fd5b506101136105bd565b604051610120919061128b565b60405180910390f35b34801561013557600080fd5b5061013e6105e6565b60405161014b919061128b565b60405180910390f35b34801561016057600080fd5b5061017b60048036038101906101769190610dbc565b61060c565b005b34801561018957600080fd5b506101a4600480360381019061019f9190610e0e565b61071f565b6040516101b191906112f8565b60405180910390f35b3480156101c657600080fd5b506101e160048036038101906101dc9190610dbc565b61073f565b005b3480156101ef57600080fd5b5061020a60048036038101906102059190610e60565b6107e0565b60405161021791906112f8565b60405180910390f35b60035481565b61022e610c09565b73ffffffffffffffffffffffffffffffffffffffff1660008054906101000a900473ffffffffffffffffffffffffffffffffffffffff1673ffffffffffffffffffffffffffffffffffffffff16146102bb576040517f08c379a00000000000000000000000000000000000000000000000000000000081526004016102b2906113b8565b60405180910390fd5b600073ffffffffffffffffffffffffffffffffffffffff168173ffffffffffffffffffffffffffffffffffffffff161415610343576102f8610c09565b73ffffffffffffffffffffffffffffffffffffffff166108fc479081150290604051600060405180830381858888f1935050505015801561033d573d6000803e3d6000fd5b50610467565b60008190508073ffffffffffffffffffffffffffffffffffffffff1663a9059cbb61036c610c09565b8373ffffffffffffffffffffffffffffffffffffffff166370a08231306040518263ffffffff1660e01b81526004016103a5919061128b565b60206040518083038186803b1580156103bd57600080fd5b505afa1580156103d1573d6000803e3d6000fd5b505050506040513d601f19601f820116820180604052508101906103f59190610e37565b6040518363ffffffff1660e01b81526004016104129291906112a6565b602060405180830381600087803b15801561042c57600080fd5b505af1158015610440573d6000803e3d6000fd5b505050506040513d601f19601f820116820180604052508101906104649190610de5565b50505b50565b610472610c09565b73ffffffffffffffffffffffffffffffffffffffff1660008054906101000a900473ffffffffffffffffffffffffffffffffffffffff1673ffffffffffffffffffffffffffffffffffffffff16146104ff576040517f08c379a00000000000000000000000000000000000000000000000000000000081526004016104f6906113b8565b60405180910390fd5b600073ffffffffffffffffffffffffffffffffffffffff1660008054906101000a900473ffffffffffffffffffffffffffffffffffffffff1673ffffffffffffffffffffffffffffffffffffffff167f8be0079c531659141344cd1fd0a4f28419497f9722a3daafe3b4186f6b6457e060405160405180910390a360008060006101000a81548173ffffffffffffffffffffffffffffffffffffffff021916908373ffffffffffffffffffffffffffffffffffffffff160217905550565b60008060009054906101000a900473ffffffffffffffffffffffffffffffffffffffff16905090565b600260009054906101000a900473ffffffffffffffffffffffffffffffffffffffff1681565b610614610c09565b73ffffffffffffffffffffffffffffffffffffffff1660008054906101000a900473ffffffffffffffffffffffffffffffffffffffff1673ffffffffffffffffffffffffffffffffffffffff16146106a1576040517f08c379a0000000000000000000000000000000000000000000000000000000008152600401610698906113b8565b60405180910390fd5b600073ffffffffffffffffffffffffffffffffffffffff168173ffffffffffffffffffffffffffffffffffffffff1614156106db57600080fd5b80600260006101000a81548173ffffffffffffffffffffffffffffffffffffffff021916908373ffffffffffffffffffffffffffffffffffffffff16021790555050565b60016020528060005260406000206000915054906101000a900460ff1681565b610747610c09565b73ffffffffffffffffffffffffffffffffffffffff1660008054906101000a900473ffffffffffffffffffffffffffffffffffffffff1673ffffffffffffffffffffffffffffffffffffffff16146107d4576040517f08c379a00000000000000000000000000000000000000000000000000000000081526004016107cb906113b8565b60405180910390fd5b6107dd81610c11565b50565b600084421115610825576040517f08c379a000000000000000000000000000000000000000000000000000000000815260040161081c90611398565b60405180910390fd5b60008611610868576040517f08c379a000000000000000000000000000000000000000000000000000000000815260040161085f906113f8565b60405180910390fd5b600073ffffffffffffffffffffffffffffffffffffffff16600260009054906101000a900473ffffffffffffffffffffffffffffffffffffffff1673ffffffffffffffffffffffffffffffffffffffff1614156108fa576040517f08c379a00000000000000000000000000000000000000000000000000000000081526004016108f190611418565b60405180910390fd5b60008633876040516020016109119392919061124e565b60405160208183030381529060405280519060200120905060006001600083815260200190815260200160002060009054906101000a900460ff1690506000151581151514610995576040517f08c379a000000000000000000000000000000000000000000000000000000000815260040161098c906113d8565b60405180910390fd5b6000826040516020016109a89190611228565b6040516020818303038152906040528051906020012090506000600182898989604051600081526020016040526040516109e59493929190611313565b6020604051602081039080840390855afa158015610a07573d6000803e3d6000fd5b505050602060405103519050610a1b6105bd565b73ffffffffffffffffffffffffffffffffffffffff168173ffffffffffffffffffffffffffffffffffffffff1614610a88576040517f08c379a0000000000000000000000000000000000000000000000000000000008152600401610a7f90611438565b60405180910390fd5b6000600260009054906101000a900473ffffffffffffffffffffffffffffffffffffffff1690508073ffffffffffffffffffffffffffffffffffffffff1663a9059cbb338d6040518363ffffffff1660e01b8152600401610aea9291906112cf565b602060405180830381600087803b158015610b0457600080fd5b505af1158015610b18573d6000803e3d6000fd5b505050506040513d601f19601f82011682018060405250810190610b3c9190610de5565b610b7b576040517f08c379a0000000000000000000000000000000000000000000000000000000008152600401610b7290611378565b60405180910390fd5b600180600087815260200190815260200160002060006101000a81548160ff0219169083151502179055507f4ec90e965519d92681267467f775ada5bd214aa92c0dc93d90a5e880ce9ed02660036000815480929190610bda9061155b565b91905055338d604051610bef93929190611473565b60405180910390a160019550505050505095945050505050565b600033905090565b600073ffffffffffffffffffffffffffffffffffffffff168173ffffffffffffffffffffffffffffffffffffffff161415610c81576040517f08c379a0000000000000000000000000000000000000000000000000000000008152600401610c7890611358565b60405180910390fd5b8073ffffffffffffffffffffffffffffffffffffffff1660008054906101000a900473ffffffffffffffffffffffffffffffffffffffff1673ffffffffffffffffffffffffffffffffffffffff167f8be0079c531659141344cd1fd0a4f28419497f9722a3daafe3b4186f6b6457e060405160405180910390a3806000806101000a81548173ffffffffffffffffffffffffffffffffffffffff021916908373ffffffffffffffffffffffffffffffffffffffff16021790555050565b600081359050610d4d81611618565b92915050565b600081519050610d628161162f565b92915050565b600081359050610d7781611646565b92915050565b600081359050610d8c8161165d565b92915050565b600081519050610da18161165d565b92915050565b600081359050610db681611674565b92915050565b600060208284031215610dce57600080fd5b6000610ddc84828501610d3e565b91505092915050565b600060208284031215610df757600080fd5b6000610e0584828501610d53565b91505092915050565b600060208284031215610e2057600080fd5b6000610e2e84828501610d68565b91505092915050565b600060208284031215610e4957600080fd5b6000610e5784828501610d92565b91505092915050565b600080600080600060a08688031215610e7857600080fd5b6000610e8688828901610d7d565b9550506020610e9788828901610d7d565b9450506040610ea888828901610da7565b9350506060610eb988828901610d68565b9250506080610eca88828901610d68565b9150509295509295909350565b610ee081611525565b82525050565b610eef816114c6565b82525050565b610f06610f01826114c6565b6115a4565b82525050565b610f15816114d8565b82525050565b610f24816114e4565b82525050565b610f3b610f36826114e4565b6115b6565b82525050565b6000610f4e601c836114bb565b91507f19457468657265756d205369676e6564204d6573736167653a0a3332000000006000830152601c82019050919050565b6000610f8e6026836114aa565b91507f4f776e61626c653a206e6577206f776e657220697320746865207a65726f206160008301527f64647265737300000000000000000000000000000000000000000000000000006020830152604082019050919050565b6000610ff46015836114aa565b91507f546f6b656e207472616e73666572206661696c656400000000000000000000006000830152602082019050919050565b60006110346012836114aa565b91507f436c61696d2077617320657870697265642e00000000000000000000000000006000830152602082019050919050565b60006110746020836114aa565b91507f4f776e61626c653a2063616c6c6572206973206e6f7420746865206f776e65726000830152602082019050919050565b60006110b46014836114aa565b91507f596f752068616420636c61696d6564206f75742e0000000000000000000000006000830152602082019050919050565b60006110f46024836114aa565b91507f596f752077616e742070756c6c2074686520636f696e732c206e6f742070757460008301527f20696e2e000000000000000000000000000000000000000000000000000000006020830152604082019050919050565b600061115a601c836114aa565b91507f54686520746f6b656e206f662061697264726f70206973206e756c6c000000006000830152602082019050919050565b600061119a6024836114aa565b91507f596f7572206d657373616765206973206e6f74207369676e656420627920616460008301527f6d696e2e000000000000000000000000000000000000000000000000000000006020830152604082019050919050565b6111fc8161150e565b82525050565b61121361120e8261150e565b6115d2565b82525050565b61122281611518565b82525050565b600061123382610f41565b915061123f8284610f2a565b60208201915081905092915050565b600061125a8286611202565b60208201915061126a8285610ef5565b60148201915061127a8284611202565b602082019150819050949350505050565b60006020820190506112a06000830184610ee6565b92915050565b60006040820190506112bb6000830185610ed7565b6112c860208301846111f3565b9392505050565b60006040820190506112e46000830185610ee6565b6112f160208301846111f3565b9392505050565b600060208201905061130d6000830184610f0c565b92915050565b60006080820190506113286000830187610f1b565b6113356020830186611219565b6113426040830185610f1b565b61134f6060830184610f1b565b95945050505050565b6000602082019050818103600083015261137181610f81565b9050919050565b6000602082019050818103600083015261139181610fe7565b9050919050565b600060208201905081810360008301526113b181611027565b9050919050565b600060208201905081810360008301526113d181611067565b9050919050565b600060208201905081810360008301526113f1816110a7565b9050919050565b60006020820190508181036000830152611411816110e7565b9050919050565b600060208201905081810360008301526114318161114d565b9050919050565b600060208201905081810360008301526114518161118d565b9050919050565b600060208201905061146d60008301846111f3565b92915050565b600060608201905061148860008301866111f3565b6114956020830185610ee6565b6114a260408301846111f3565b949350505050565b600082825260208201905092915050565b600081905092915050565b60006114d1826114ee565b9050919050565b60008115159050919050565b6000819050919050565b600073ffffffffffffffffffffffffffffffffffffffff82169050919050565b6000819050919050565b600060ff82169050919050565b600061153082611537565b9050919050565b600061154282611549565b9050919050565b6000611554826114ee565b9050919050565b60006115668261150e565b91507fffffffffffffffffffffffffffffffffffffffffffffffffffffffffffffffff821415611599576115986115dc565b5b600182019050919050565b60006115af826115c0565b9050919050565b6000819050919050565b60006115cb8261160b565b9050919050565b6000819050919050565b7f4e487b7100000000000000000000000000000000000000000000000000000000600052601160045260246000fd5b60008160601b9050919050565b611621816114c6565b811461162c57600080fd5b50565b611638816114d8565b811461164357600080fd5b50565b61164f816114e4565b811461165a57600080fd5b50565b6116668161150e565b811461167157600080fd5b50565b61167d81611518565b811461168857600080fd5b5056fea2646970667358221220b5b8b37f431ad48dbec817c3abe62c8fe7b5bfecdf62e2a13d19016c340631ae64736f6c63430008000033",
  "immutableReferences": {},
  "source": "// SPDX-License-Identifier: MIT\n\npragma solidity ^0.8.0;\n\nimport \"./Ownable.sol\";\nimport \"./IBEP20.sol\";\n\ncontract AirdropClaim is Ownable {\n    mapping(bytes32 => bool) public hashBlacklist;\n\n    address public airdropTokenAddress;\n\n    uint256 public claimId = 0;\n    event Claimed(uint256 claimId_, address add_, uint256 amount_);\n\n    constructor(address airdropToken_) {\n        require(airdropToken_ != address(0));\n        airdropTokenAddress = airdropToken_;\n    }\n\n    receive() external payable {}\n\n    fallback() external payable {}\n\n    /*\n     * @dev Pull out all balance of token or BNB in this contract. When tokenAddress_ is 0x0, will transfer all BNB to the admin owner.\n     */\n    function pullFunds(address tokenAddress_) public onlyOwner {\n        if (tokenAddress_ == address(0)) {\n            _msgSender().transfer(address(this).balance);\n        } else {\n            IBEP20 token = IBEP20(tokenAddress_);\n            token.transfer(_msgSender(), token.balanceOf(address(this)));\n        }\n    }\n\n    function setAirdropTokenAddress(address airdropToken_) public onlyOwner {\n        require(airdropToken_ != address(0));\n        airdropTokenAddress = airdropToken_;\n    }\n\n    function claim(\n        uint256 amount,\n        uint256 expiredAt,\n        uint8 v,\n        bytes32 r,\n        bytes32 s\n    ) public returns (bool) {\n        require(block.timestamp <= expiredAt, \"Claim was expired.\");\n        require(amount > 0, \"You want pull the coins, not put in.\");\n        require(\n            airdropTokenAddress != address(0),\n            \"The token of airdrop is null\"\n        );\n\n        bytes32 h = keccak256(abi.encodePacked(amount, msg.sender, expiredAt));\n        bool isClaimed = hashBlacklist[h];\n        require(isClaimed == false, \"You had claimed out.\");\n\n        bytes32 prefixedHash = keccak256(\n            abi.encodePacked(\"\\x19Ethereum Signed Message:\\n32\", h)\n        );\n        address addr = ecrecover(prefixedHash, v, r, s);\n        require(addr == owner(), \"Your message is not signed by admin.\");\n\n        IBEP20 token = IBEP20(airdropTokenAddress);\n        require(token.transfer(msg.sender, amount), \"Token transfer failed\");\n\n        hashBlacklist[h] = true;\n        emit Claimed(claimId++, msg.sender, amount);\n\n        return true;\n    }\n}\n",
  "sourcePath": "/home/ayoung/project/BEP20Airdrop/contracts/AirdropClaim.sol",
  "compiler": {
    "name": "solc",
    "version": "0.8.0+commit.c7dfd78e.Emscripten.clang"
  },
  "schemaVersion": "3.3.4",
  "updatedAt": "2021-08-02T12:02:51.455Z",
  "networkType": "ethereum",
  "devdoc": {
    "kind": "dev",
    "methods": {
      "owner()": {
        "details": "Returns the address of the current owner."
      },
      "renounceOwnership()": {
        "details": "Leaves the contract without owner. It will not be possible to call `onlyOwner` functions anymore. Can only be called by the current owner. NOTE: Renouncing ownership will leave the contract without an owner, thereby removing any functionality that is only available to the owner."
      },
      "transferOwnership(address)": {
        "details": "Transfers ownership of the contract to a new account (`newOwner`). Can only be called by the current owner."
      }
    },
    "version": 1
  },
  "userdoc": {
    "kind": "user",
    "methods": {},
    "version": 1
  }
}